{
  "_format": "hh-sol-artifact-1",
  "contractName": "NFTMusic",
  "sourceName": "contracts/NFTMusic.sol",
  "abi": [
    {
      "anonymous": false,
      "inputs": [
        {
          "indexed": true,
          "internalType": "uint256",
          "name": "songId",
          "type": "uint256"
        },
        {
          "indexed": true,
          "internalType": "address",
          "name": "listener",
          "type": "address"
        }
      ],
      "name": "SongListened",
      "type": "event"
    },
    {
      "anonymous": false,
      "inputs": [
        {
          "indexed": true,
          "internalType": "uint256",
          "name": "songId",
          "type": "uint256"
        },
        {
          "indexed": true,
          "internalType": "address",
          "name": "owner",
          "type": "address"
        },
        {
          "indexed": false,
          "internalType": "string",
          "name": "ipfsHash",
          "type": "string"
        }
      ],
      "name": "SongUploaded",
      "type": "event"
    },
    {
      "inputs": [
        {
          "internalType": "uint256",
          "name": "_songId",
          "type": "uint256"
        }
      ],
      "name": "getOwnerOfSong",
      "outputs": [
        {
          "internalType": "address",
          "name": "",
          "type": "address"
        }
      ],
      "stateMutability": "view",
      "type": "function"
    },
    {
      "inputs": [
        {
          "internalType": "uint256",
          "name": "_index",
          "type": "uint256"
        }
      ],
      "name": "getSongId",
      "outputs": [
        {
          "internalType": "uint256",
          "name": "",
          "type": "uint256"
        }
      ],
      "stateMutability": "view",
      "type": "function"
    },
    {
      "inputs": [],
      "name": "getTotalSongs",
      "outputs": [
        {
          "internalType": "uint256",
          "name": "",
          "type": "uint256"
        }
      ],
      "stateMutability": "view",
      "type": "function"
    },
    {
      "inputs": [
        {
          "internalType": "uint256",
          "name": "_songId",
          "type": "uint256"
        }
      ],
      "name": "isSongAvailable",
      "outputs": [
        {
          "internalType": "bool",
          "name": "",
          "type": "bool"
        }
      ],
      "stateMutability": "view",
      "type": "function"
    },
    {
      "inputs": [
        {
          "internalType": "uint256",
          "name": "_songId",
          "type": "uint256"
        }
      ],
      "name": "listenToSong",
      "outputs": [
        {
          "internalType": "string",
          "name": "",
          "type": "string"
        }
      ],
      "stateMutability": "view",
      "type": "function"
    },
    {
      "inputs": [],
      "name": "songCount",
      "outputs": [
        {
          "internalType": "uint256",
          "name": "",
          "type": "uint256"
        }
      ],
      "stateMutability": "view",
      "type": "function"
    },
    {
      "inputs": [
        {
          "internalType": "uint256",
          "name": "_songId",
          "type": "uint256"
        },
        {
          "internalType": "string",
          "name": "_ipfsHash",
          "type": "string"
        }
      ],
      "name": "uploadSong",
      "outputs": [],
      "stateMutability": "nonpayable",
      "type": "function"
    }
  ],
  "bytecode": "0x608060405234801561001057600080fd5b50610c69806100206000396000f3fe608060405234801561001057600080fd5b506004361061007d5760003560e01c8063783f82121161005b578063783f82121461011257806389657331146101425780638c9db2b41461015e578063931a889b1461017c5761007d565b8063024996721461008257806328e3a22a146100b2578063564d8adc146100e2575b600080fd5b61009c60048036038101906100979190610726565b61019a565b6040516100a991906109e1565b60405180910390f35b6100cc60048036038101906100c79190610726565b6102d9565b6040516100d9919061093f565b60405180910390f35b6100fc60048036038101906100f79190610726565b6103de565b6040516101099190610909565b60405180910390f35b61012c60048036038101906101279190610726565b61041b565b6040516101399190610924565b60405180910390f35b61015c6004803603810190610157919061074f565b610445565b005b6101666105f7565b60405161017391906109e1565b60405180910390f35b610184610600565b60405161019191906109e1565b60405180910390f35b600080821180156101ad57506000548211155b6101ec576040517f08c379a00000000000000000000000000000000000000000000000000000000081526004016101e390610961565b60405180910390fd5b600080600190505b600054811161029857600073ffffffffffffffffffffffffffffffffffffffff166001600083815260200190815260200160002060009054906101000a900473ffffffffffffffffffffffffffffffffffffffff1673ffffffffffffffffffffffffffffffffffffffff161461027357818061026f90610b35565b9250505b838214156102855780925050506102d4565b808061029090610b35565b9150506101f4565b506040517f08c379a00000000000000000000000000000000000000000000000000000000081526004016102cb906109a1565b60405180910390fd5b919050565b60606002600083815260200190815260200160002060009054906101000a900460ff1661033b576040517f08c379a0000000000000000000000000000000000000000000000000000000008152600401610332906109c1565b60405180910390fd5b60036000838152602001908152602001600020805461035990610b03565b80601f016020809104026020016040519081016040528092919081815260200182805461038590610b03565b80156103d25780601f106103a7576101008083540402835291602001916103d2565b820191906000526020600020905b8154815290600101906020018083116103b557829003601f168201915b50505050509050919050565b60006001600083815260200190815260200160002060009054906101000a900473ffffffffffffffffffffffffffffffffffffffff169050919050565b60006002600083815260200190815260200160002060009054906101000a900460ff169050919050565b600073ffffffffffffffffffffffffffffffffffffffff166001600084815260200190815260200160002060009054906101000a900473ffffffffffffffffffffffffffffffffffffffff1673ffffffffffffffffffffffffffffffffffffffff16146104e7576040517f08c379a00000000000000000000000000000000000000000000000000000000081526004016104de90610981565b60405180910390fd5b336001600084815260200190815260200160002060006101000a81548173ffffffffffffffffffffffffffffffffffffffff021916908373ffffffffffffffffffffffffffffffffffffffff16021790555060016002600084815260200190815260200160002060006101000a81548160ff0219169083151502179055508060036000848152602001908152602001600020908051906020019061058c929190610606565b5060008081548092919061059f90610b35565b91905055503373ffffffffffffffffffffffffffffffffffffffff16827fddce588e52225cd60e63c0acc6ea1bf4c19287ca56b2ebbbdafd3389c79d274f836040516105eb919061093f565b60405180910390a35050565b60008054905090565b60005481565b82805461061290610b03565b90600052602060002090601f016020900481019282610634576000855561067b565b82601f1061064d57805160ff191683800117855561067b565b8280016001018555821561067b579182015b8281111561067a57825182559160200191906001019061065f565b5b509050610688919061068c565b5090565b5b808211156106a557600081600090555060010161068d565b5090565b60006106bc6106b784610a2d565b6109fc565b9050828152602081018484840111156106d457600080fd5b6106df848285610ac1565b509392505050565b600082601f8301126106f857600080fd5b81356107088482602086016106a9565b91505092915050565b60008135905061072081610c1c565b92915050565b60006020828403121561073857600080fd5b600061074684828501610711565b91505092915050565b6000806040838503121561076257600080fd5b600061077085828601610711565b925050602083013567ffffffffffffffff81111561078d57600080fd5b610799858286016106e7565b9150509250929050565b6107ac81610a79565b82525050565b6107bb81610a8b565b82525050565b60006107cc82610a5d565b6107d68185610a68565b93506107e6818560208601610ad0565b6107ef81610c0b565b840191505092915050565b6000610807600d83610a68565b91507f496e76616c696420696e646578000000000000000000000000000000000000006000830152602082019050919050565b6000610847601383610a68565b91507f536f6e6720616c726561647920657869737473000000000000000000000000006000830152602082019050919050565b6000610887600e83610a68565b91507f536f6e67206e6f7420666f756e640000000000000000000000000000000000006000830152602082019050919050565b60006108c7601283610a68565b91507f536f6e67206e6f7420617661696c61626c6500000000000000000000000000006000830152602082019050919050565b61090381610ab7565b82525050565b600060208201905061091e60008301846107a3565b92915050565b600060208201905061093960008301846107b2565b92915050565b6000602082019050818103600083015261095981846107c1565b905092915050565b6000602082019050818103600083015261097a816107fa565b9050919050565b6000602082019050818103600083015261099a8161083a565b9050919050565b600060208201905081810360008301526109ba8161087a565b9050919050565b600060208201905081810360008301526109da816108ba565b9050919050565b60006020820190506109f660008301846108fa565b92915050565b6000604051905081810181811067ffffffffffffffff82111715610a2357610a22610bdc565b5b8060405250919050565b600067ffffffffffffffff821115610a4857610a47610bdc565b5b601f19601f8301169050602081019050919050565b600081519050919050565b600082825260208201905092915050565b6000610a8482610a97565b9050919050565b60008115159050919050565b600073ffffffffffffffffffffffffffffffffffffffff82169050919050565b6000819050919050565b82818337600083830152505050565b60005b83811015610aee578082015181840152602081019050610ad3565b83811115610afd576000848401525b50505050565b60006002820490506001821680610b1b57607f821691505b60208210811415610b2f57610b2e610bad565b5b50919050565b6000610b4082610ab7565b91507fffffffffffffffffffffffffffffffffffffffffffffffffffffffffffffffff821415610b7357610b72610b7e565b5b600182019050919050565b7f4e487b7100000000000000000000000000000000000000000000000000000000600052601160045260246000fd5b7f4e487b7100000000000000000000000000000000000000000000000000000000600052602260045260246000fd5b7f4e487b7100000000000000000000000000000000000000000000000000000000600052604160045260246000fd5b6000601f19601f8301169050919050565b610c2581610ab7565b8114610c3057600080fd5b5056fea26469706673582212208dae95f4b360b1da390d3129d37595b423b92a1a8f338b2c9dda539df1b68a1f64736f6c63430008000033",
  "linkReferences": {},
  "deployedLinkReferences": {}
}